{
	"abi": [
		{
			"type": "constructor",
			"inputs": [
				{
					"name": "initialMintPrice",
					"type": "uint256",
					"internalType": "uint256"
				},
				{
					"name": "initialMaxSupply",
					"type": "uint256",
					"internalType": "uint256"
				},
				{
					"name": "baseColorsAddress",
					"type": "address",
					"internalType": "address"
				}
			],
			"stateMutability": "nonpayable"
		},
		{
			"type": "function",
			"name": "MAX_COLORS",
			"inputs": [],
			"outputs": [
				{
					"name": "",
					"type": "uint256",
					"internalType": "uint256"
				}
			],
			"stateMutability": "view"
		},
		{
			"type": "function",
			"name": "MIN_COLORS",
			"inputs": [],
			"outputs": [
				{
					"name": "",
					"type": "uint256",
					"internalType": "uint256"
				}
			],
			"stateMutability": "view"
		},
		{
			"type": "function",
			"name": "approve",
			"inputs": [
				{
					"name": "to",
					"type": "address",
					"internalType": "address"
				},
				{
					"name": "tokenId",
					"type": "uint256",
					"internalType": "uint256"
				}
			],
			"outputs": [],
			"stateMutability": "nonpayable"
		},
		{
			"type": "function",
			"name": "balanceOf",
			"inputs": [
				{
					"name": "owner",
					"type": "address",
					"internalType": "address"
				}
			],
			"outputs": [
				{
					"name": "",
					"type": "uint256",
					"internalType": "uint256"
				}
			],
			"stateMutability": "view"
		},
		{
			"type": "function",
			"name": "baseColors",
			"inputs": [],
			"outputs": [
				{
					"name": "",
					"type": "address",
					"internalType": "contract IBaseColors"
				}
			],
			"stateMutability": "view"
		},
		{
			"type": "function",
			"name": "buildSVG",
			"inputs": [
				{
					"name": "tokenId",
					"type": "uint256",
					"internalType": "uint256"
				}
			],
			"outputs": [
				{
					"name": "",
					"type": "string",
					"internalType": "string"
				}
			],
			"stateMutability": "view"
		},
		{
			"type": "function",
			"name": "burn",
			"inputs": [
				{
					"name": "tokenId",
					"type": "uint256",
					"internalType": "uint256"
				}
			],
			"outputs": [],
			"stateMutability": "nonpayable"
		},
		{
			"type": "function",
			"name": "currentSupply",
			"inputs": [],
			"outputs": [
				{
					"name": "",
					"type": "uint256",
					"internalType": "uint256"
				}
			],
			"stateMutability": "view"
		},
		{
			"type": "function",
			"name": "currentTokenId",
			"inputs": [],
			"outputs": [
				{
					"name": "",
					"type": "uint256",
					"internalType": "uint256"
				}
			],
			"stateMutability": "view"
		},
		{
			"type": "function",
			"name": "getApproved",
			"inputs": [
				{
					"name": "tokenId",
					"type": "uint256",
					"internalType": "uint256"
				}
			],
			"outputs": [
				{
					"name": "",
					"type": "address",
					"internalType": "address"
				}
			],
			"stateMutability": "view"
		},
		{
			"type": "function",
			"name": "getColorName",
			"inputs": [
				{
					"name": "colorhex",
					"type": "string",
					"internalType": "string"
				}
			],
			"outputs": [
				{
					"name": "",
					"type": "string",
					"internalType": "string"
				}
			],
			"stateMutability": "view"
		},
		{
			"type": "function",
			"name": "isApprovedForAll",
			"inputs": [
				{
					"name": "owner",
					"type": "address",
					"internalType": "address"
				},
				{
					"name": "operator",
					"type": "address",
					"internalType": "address"
				}
			],
			"outputs": [
				{
					"name": "",
					"type": "bool",
					"internalType": "bool"
				}
			],
			"stateMutability": "view"
		},
		{
			"type": "function",
			"name": "isUniqueCombination",
			"inputs": [
				{
					"name": "colors",
					"type": "string[]",
					"internalType": "string[]"
				}
			],
			"outputs": [
				{
					"name": "",
					"type": "bool",
					"internalType": "bool"
				}
			],
			"stateMutability": "view"
		},
		{
			"type": "function",
			"name": "isValidHexCode",
			"inputs": [
				{
					"name": "hexCode",
					"type": "string",
					"internalType": "string"
				}
			],
			"outputs": [
				{
					"name": "",
					"type": "bool",
					"internalType": "bool"
				}
			],
			"stateMutability": "pure"
		},
		{
			"type": "function",
			"name": "maxSupply",
			"inputs": [],
			"outputs": [
				{
					"name": "",
					"type": "uint256",
					"internalType": "uint256"
				}
			],
			"stateMutability": "view"
		},
		{
			"type": "function",
			"name": "mint",
			"inputs": [
				{
					"name": "tokenIds",
					"type": "uint256[]",
					"internalType": "uint256[]"
				},
				{
					"name": "recipient",
					"type": "address",
					"internalType": "address"
				}
			],
			"outputs": [],
			"stateMutability": "payable"
		},
		{
			"type": "function",
			"name": "mintBatch",
			"inputs": [
				{
					"name": "batchTokenIds",
					"type": "uint256[][]",
					"internalType": "uint256[][]"
				},
				{
					"name": "recipient",
					"type": "address",
					"internalType": "address"
				}
			],
			"outputs": [],
			"stateMutability": "payable"
		},
		{
			"type": "function",
			"name": "mintEnabled",
			"inputs": [],
			"outputs": [
				{
					"name": "",
					"type": "bool",
					"internalType": "bool"
				}
			],
			"stateMutability": "view"
		},
		{
			"type": "function",
			"name": "mintPrice",
			"inputs": [],
			"outputs": [
				{
					"name": "",
					"type": "uint256",
					"internalType": "uint256"
				}
			],
			"stateMutability": "view"
		},
		{
			"type": "function",
			"name": "name",
			"inputs": [],
			"outputs": [
				{
					"name": "",
					"type": "string",
					"internalType": "string"
				}
			],
			"stateMutability": "view"
		},
		{
			"type": "function",
			"name": "owner",
			"inputs": [],
			"outputs": [
				{
					"name": "",
					"type": "address",
					"internalType": "address"
				}
			],
			"stateMutability": "view"
		},
		{
			"type": "function",
			"name": "ownerOf",
			"inputs": [
				{
					"name": "tokenId",
					"type": "uint256",
					"internalType": "uint256"
				}
			],
			"outputs": [
				{
					"name": "",
					"type": "address",
					"internalType": "address"
				}
			],
			"stateMutability": "view"
		},
		{
			"type": "function",
			"name": "pause",
			"inputs": [],
			"outputs": [],
			"stateMutability": "nonpayable"
		},
		{
			"type": "function",
			"name": "paused",
			"inputs": [],
			"outputs": [
				{
					"name": "",
					"type": "bool",
					"internalType": "bool"
				}
			],
			"stateMutability": "view"
		},
		{
			"type": "function",
			"name": "renounceOwnership",
			"inputs": [],
			"outputs": [],
			"stateMutability": "nonpayable"
		},
		{
			"type": "function",
			"name": "safeTransferFrom",
			"inputs": [
				{
					"name": "from",
					"type": "address",
					"internalType": "address"
				},
				{
					"name": "to",
					"type": "address",
					"internalType": "address"
				},
				{
					"name": "tokenId",
					"type": "uint256",
					"internalType": "uint256"
				}
			],
			"outputs": [],
			"stateMutability": "nonpayable"
		},
		{
			"type": "function",
			"name": "safeTransferFrom",
			"inputs": [
				{
					"name": "from",
					"type": "address",
					"internalType": "address"
				},
				{
					"name": "to",
					"type": "address",
					"internalType": "address"
				},
				{
					"name": "tokenId",
					"type": "uint256",
					"internalType": "uint256"
				},
				{
					"name": "data",
					"type": "bytes",
					"internalType": "bytes"
				}
			],
			"outputs": [],
			"stateMutability": "nonpayable"
		},
		{
			"type": "function",
			"name": "setApprovalForAll",
			"inputs": [
				{
					"name": "operator",
					"type": "address",
					"internalType": "address"
				},
				{
					"name": "approved",
					"type": "bool",
					"internalType": "bool"
				}
			],
			"outputs": [],
			"stateMutability": "nonpayable"
		},
		{
			"type": "function",
			"name": "supportsInterface",
			"inputs": [
				{
					"name": "interfaceId",
					"type": "bytes4",
					"internalType": "bytes4"
				}
			],
			"outputs": [
				{
					"name": "",
					"type": "bool",
					"internalType": "bool"
				}
			],
			"stateMutability": "view"
		},
		{
			"type": "function",
			"name": "symbol",
			"inputs": [],
			"outputs": [
				{
					"name": "",
					"type": "string",
					"internalType": "string"
				}
			],
			"stateMutability": "view"
		},
		{
			"type": "function",
			"name": "toggleMinting",
			"inputs": [],
			"outputs": [],
			"stateMutability": "nonpayable"
		},
		{
			"type": "function",
			"name": "tokenByIndex",
			"inputs": [
				{
					"name": "index",
					"type": "uint256",
					"internalType": "uint256"
				}
			],
			"outputs": [
				{
					"name": "",
					"type": "uint256",
					"internalType": "uint256"
				}
			],
			"stateMutability": "view"
		},
		{
			"type": "function",
			"name": "tokenColors",
			"inputs": [
				{
					"name": "",
					"type": "uint256",
					"internalType": "uint256"
				},
				{
					"name": "",
					"type": "uint256",
					"internalType": "uint256"
				}
			],
			"outputs": [
				{
					"name": "",
					"type": "string",
					"internalType": "string"
				}
			],
			"stateMutability": "view"
		},
		{
			"type": "function",
			"name": "tokenOfOwnerByIndex",
			"inputs": [
				{
					"name": "owner",
					"type": "address",
					"internalType": "address"
				},
				{
					"name": "index",
					"type": "uint256",
					"internalType": "uint256"
				}
			],
			"outputs": [
				{
					"name": "",
					"type": "uint256",
					"internalType": "uint256"
				}
			],
			"stateMutability": "view"
		},
		{
			"type": "function",
			"name": "tokenURI",
			"inputs": [
				{
					"name": "tokenId",
					"type": "uint256",
					"internalType": "uint256"
				}
			],
			"outputs": [
				{
					"name": "",
					"type": "string",
					"internalType": "string"
				}
			],
			"stateMutability": "view"
		},
		{
			"type": "function",
			"name": "totalSupply",
			"inputs": [],
			"outputs": [
				{
					"name": "",
					"type": "uint256",
					"internalType": "uint256"
				}
			],
			"stateMutability": "view"
		},
		{
			"type": "function",
			"name": "transferFrom",
			"inputs": [
				{
					"name": "from",
					"type": "address",
					"internalType": "address"
				},
				{
					"name": "to",
					"type": "address",
					"internalType": "address"
				},
				{
					"name": "tokenId",
					"type": "uint256",
					"internalType": "uint256"
				}
			],
			"outputs": [],
			"stateMutability": "nonpayable"
		},
		{
			"type": "function",
			"name": "transferOwnership",
			"inputs": [
				{
					"name": "newOwner",
					"type": "address",
					"internalType": "address"
				}
			],
			"outputs": [],
			"stateMutability": "nonpayable"
		},
		{
			"type": "function",
			"name": "unpause",
			"inputs": [],
			"outputs": [],
			"stateMutability": "nonpayable"
		},
		{
			"type": "function",
			"name": "updateMaxSupply",
			"inputs": [
				{
					"name": "newMaxSupply",
					"type": "uint256",
					"internalType": "uint256"
				}
			],
			"outputs": [],
			"stateMutability": "nonpayable"
		},
		{
			"type": "function",
			"name": "updateMintPrice",
			"inputs": [
				{
					"name": "newPrice",
					"type": "uint256",
					"internalType": "uint256"
				}
			],
			"outputs": [],
			"stateMutability": "nonpayable"
		},
		{
			"type": "function",
			"name": "withdraw",
			"inputs": [],
			"outputs": [],
			"stateMutability": "nonpayable"
		},
		{
			"type": "event",
			"name": "Approval",
			"inputs": [
				{
					"name": "owner",
					"type": "address",
					"indexed": true,
					"internalType": "address"
				},
				{
					"name": "approved",
					"type": "address",
					"indexed": true,
					"internalType": "address"
				},
				{
					"name": "tokenId",
					"type": "uint256",
					"indexed": true,
					"internalType": "uint256"
				}
			],
			"anonymous": false
		},
		{
			"type": "event",
			"name": "ApprovalForAll",
			"inputs": [
				{
					"name": "owner",
					"type": "address",
					"indexed": true,
					"internalType": "address"
				},
				{
					"name": "operator",
					"type": "address",
					"indexed": true,
					"internalType": "address"
				},
				{
					"name": "approved",
					"type": "bool",
					"indexed": false,
					"internalType": "bool"
				}
			],
			"anonymous": false
		},
		{
			"type": "event",
			"name": "FundsWithdrawn",
			"inputs": [
				{
					"name": "to",
					"type": "address",
					"indexed": true,
					"internalType": "address"
				},
				{
					"name": "amount",
					"type": "uint256",
					"indexed": false,
					"internalType": "uint256"
				}
			],
			"anonymous": false
		},
		{
			"type": "event",
			"name": "MaxSupplyUpdated",
			"inputs": [
				{
					"name": "newMaxSupply",
					"type": "uint256",
					"indexed": false,
					"internalType": "uint256"
				}
			],
			"anonymous": false
		},
		{
			"type": "event",
			"name": "MetadataUpdate",
			"inputs": [
				{
					"name": "_tokenId",
					"type": "uint256",
					"indexed": false,
					"internalType": "uint256"
				}
			],
			"anonymous": false
		},
		{
			"type": "event",
			"name": "MintPriceUpdated",
			"inputs": [
				{
					"name": "newPrice",
					"type": "uint256",
					"indexed": false,
					"internalType": "uint256"
				}
			],
			"anonymous": false
		},
		{
			"type": "event",
			"name": "MintingToggled",
			"inputs": [
				{
					"name": "newStatus",
					"type": "bool",
					"indexed": false,
					"internalType": "bool"
				}
			],
			"anonymous": false
		},
		{
			"type": "event",
			"name": "OwnershipTransferred",
			"inputs": [
				{
					"name": "previousOwner",
					"type": "address",
					"indexed": true,
					"internalType": "address"
				},
				{
					"name": "newOwner",
					"type": "address",
					"indexed": true,
					"internalType": "address"
				}
			],
			"anonymous": false
		},
		{
			"type": "event",
			"name": "Paused",
			"inputs": [
				{
					"name": "account",
					"type": "address",
					"indexed": false,
					"internalType": "address"
				}
			],
			"anonymous": false
		},
		{
			"type": "event",
			"name": "TokenMinted",
			"inputs": [
				{
					"name": "to",
					"type": "address",
					"indexed": true,
					"internalType": "address"
				},
				{
					"name": "tokenId",
					"type": "uint256",
					"indexed": true,
					"internalType": "uint256"
				},
				{
					"name": "colors",
					"type": "string[]",
					"indexed": false,
					"internalType": "string[]"
				}
			],
			"anonymous": false
		},
		{
			"type": "event",
			"name": "Transfer",
			"inputs": [
				{
					"name": "from",
					"type": "address",
					"indexed": true,
					"internalType": "address"
				},
				{
					"name": "to",
					"type": "address",
					"indexed": true,
					"internalType": "address"
				},
				{
					"name": "tokenId",
					"type": "uint256",
					"indexed": true,
					"internalType": "uint256"
				}
			],
			"anonymous": false
		},
		{
			"type": "event",
			"name": "Unpaused",
			"inputs": [
				{
					"name": "account",
					"type": "address",
					"indexed": false,
					"internalType": "address"
				}
			],
			"anonymous": false
		},
		{
			"type": "error",
			"name": "ERC721EnumerableForbiddenBatchMint",
			"inputs": []
		},
		{
			"type": "error",
			"name": "ERC721IncorrectOwner",
			"inputs": [
				{
					"name": "sender",
					"type": "address",
					"internalType": "address"
				},
				{
					"name": "tokenId",
					"type": "uint256",
					"internalType": "uint256"
				},
				{
					"name": "owner",
					"type": "address",
					"internalType": "address"
				}
			]
		},
		{
			"type": "error",
			"name": "ERC721InsufficientApproval",
			"inputs": [
				{
					"name": "operator",
					"type": "address",
					"internalType": "address"
				},
				{
					"name": "tokenId",
					"type": "uint256",
					"internalType": "uint256"
				}
			]
		},
		{
			"type": "error",
			"name": "ERC721InvalidApprover",
			"inputs": [
				{
					"name": "approver",
					"type": "address",
					"internalType": "address"
				}
			]
		},
		{
			"type": "error",
			"name": "ERC721InvalidOperator",
			"inputs": [
				{
					"name": "operator",
					"type": "address",
					"internalType": "address"
				}
			]
		},
		{
			"type": "error",
			"name": "ERC721InvalidOwner",
			"inputs": [
				{
					"name": "owner",
					"type": "address",
					"internalType": "address"
				}
			]
		},
		{
			"type": "error",
			"name": "ERC721InvalidReceiver",
			"inputs": [
				{
					"name": "receiver",
					"type": "address",
					"internalType": "address"
				}
			]
		},
		{
			"type": "error",
			"name": "ERC721InvalidSender",
			"inputs": [
				{
					"name": "sender",
					"type": "address",
					"internalType": "address"
				}
			]
		},
		{
			"type": "error",
			"name": "ERC721NonexistentToken",
			"inputs": [
				{
					"name": "tokenId",
					"type": "uint256",
					"internalType": "uint256"
				}
			]
		},
		{
			"type": "error",
			"name": "ERC721OutOfBoundsIndex",
			"inputs": [
				{
					"name": "owner",
					"type": "address",
					"internalType": "address"
				},
				{
					"name": "index",
					"type": "uint256",
					"internalType": "uint256"
				}
			]
		},
		{
			"type": "error",
			"name": "EnforcedPause",
			"inputs": []
		},
		{
			"type": "error",
			"name": "ExpectedPause",
			"inputs": []
		},
		{
			"type": "error",
			"name": "OwnableInvalidOwner",
			"inputs": [
				{
					"name": "owner",
					"type": "address",
					"internalType": "address"
				}
			]
		},
		{
			"type": "error",
			"name": "OwnableUnauthorizedAccount",
			"inputs": [
				{
					"name": "account",
					"type": "address",
					"internalType": "address"
				}
			]
		},
		{
			"type": "error",
			"name": "ReentrancyGuardReentrantCall",
			"inputs": []
		}
	],
	"bytecode": {
		"object": "0x60c06040526005608052600260a05234801561001a57600080fd5b506040516147a33803806147a38339810160408190526100399161017d565b336040518060400160405280600881526020016750616c657474657360c01b8152506040518060400160405280600781526020016650414c4554544560c81b815250816000908161008a9190610262565b5060016100978282610262565b5050506001600160a01b0381166100c857604051631e4fbdf760e01b81526000600482015260240160405180910390fd5b6100d18161012b565b506001600b55600c805460ff199081169091556000600d819055600f9490945560119290925560108054909216909155600e91909155601480546001600160a01b0319166001600160a01b03909216919091179055610320565b600a80546001600160a01b038381166001600160a01b0319831681179093556040519116919082907f8be0079c531659141344cd1fd0a4f28419497f9722a3daafe3b4186f6b6457e090600090a35050565b60008060006060848603121561019257600080fd5b83516020850151604086015191945092506001600160a01b03811681146101b857600080fd5b809150509250925092565b634e487b7160e01b600052604160045260246000fd5b600181811c908216806101ed57607f821691505b60208210810361020d57634e487b7160e01b600052602260045260246000fd5b50919050565b601f82111561025d57806000526020600020601f840160051c8101602085101561023a5750805b601f840160051c820191505b8181101561025a5760008155600101610246565b50505b505050565b81516001600160401b0381111561027b5761027b6101c3565b61028f8161028984546101d9565b84610213565b6020601f8211600181146102c357600083156102ab5750848201515b600019600385901b1c1916600184901b17845561025a565b600084815260208120601f198516915b828110156102f357878501518255602094850194600190920191016102d3565b50848210156103115786840151600019600387901b60f8161c191681555b50505050600190811b01905550565b60805160a0516144426103616000396000818161035b015281816113a60152611bc60152600081816105ae015281816113d20152611bf001526144426000f3fe60806040526004361061024f5760003560e01c80636352211e11610139578063a22cb465116100b6578063c87b56dd1161007a578063c87b56dd146106ab578063d1239730146106cb578063d5abeb01146106e5578063e985e9c5146106fb578063f103b4331461071b578063f2fde38b1461073b57600080fd5b8063a22cb46514610618578063b88d4fde14610638578063bf9d4e6214610658578063c087e77b14610678578063c7f1ff931461068b57600080fd5b80637d55094d116100fd5780637d55094d146105875780637eccd5941461059c5780638456cb59146105d05780638da5cb5b146105e557806395d89b411461060357600080fd5b80636352211e146105075780636817c76c1461052757806370a082311461053d578063715018a61461055d578063771282f61461057257600080fd5b806323b872dd116101d257806342842e0e1161019657806342842e0e1461045c57806342966c681461047c5780634f6ccce71461049c578063588635ee146104bc5780635c5b69a9146104dc5780635c975abb146104ef57600080fd5b806323b872dd146103d25780632f745c59146103f25780633ccfd60b146104125780633e53eb28146104275780633f4ba83a1461044757600080fd5b8063095ea7b311610219578063095ea7b31461032957806311d4d71c1461034957806318160ddd1461037d5780631d5eecc014610392578063238de7f7146103b257600080fd5b8062728e46146102545780629a9b7b1461027657806301ffc9a71461029f57806306fdde03146102cf578063081812fc146102f1575b600080fd5b34801561026057600080fd5b5061027461026f366004613423565b61075b565b005b34801561028257600080fd5b5061028c600d5481565b6040519081526020015b60405180910390f35b3480156102ab57600080fd5b506102bf6102ba366004613452565b61079f565b6040519015158152602001610296565b3480156102db57600080fd5b506102e46107b0565b60405161029691906134c6565b3480156102fd57600080fd5b5061031161030c366004613423565b610842565b6040516001600160a01b039091168152602001610296565b34801561033557600080fd5b506102746103443660046134f9565b61086b565b34801561035557600080fd5b5061028c7f000000000000000000000000000000000000000000000000000000000000000081565b34801561038957600080fd5b5060085461028c565b34801561039e57600080fd5b506102e46103ad366004613525565b61087a565b3480156103be57600080fd5b506102bf6103cd36600461363a565b610933565b3480156103de57600080fd5b506102746103ed36600461366e565b610a5e565b3480156103fe57600080fd5b5061028c61040d3660046134f9565b610aee565b34801561041e57600080fd5b50610274610b53565b34801561043357600080fd5b506102e4610442366004613423565b610ca8565b34801561045357600080fd5b50610274610f0e565b34801561046857600080fd5b5061027461047736600461366e565b610f1e565b34801561048857600080fd5b50610274610497366004613423565b610f3e565b3480156104a857600080fd5b5061028c6104b7366004613423565b610f5f565b3480156104c857600080fd5b506102e46104d736600461363a565b610fb8565b6102746104ea3660046136d2565b6112fe565b3480156104fb57600080fd5b50600c5460ff166102bf565b34801561051357600080fd5b50610311610522366004613423565b611850565b34801561053357600080fd5b5061028c600f5481565b34801561054957600080fd5b5061028c610558366004613779565b61185b565b34801561056957600080fd5b506102746118a3565b34801561057e57600080fd5b50600e5461028c565b34801561059357600080fd5b506102746118b5565b3480156105a857600080fd5b5061028c7f000000000000000000000000000000000000000000000000000000000000000081565b3480156105dc57600080fd5b5061027461190b565b3480156105f157600080fd5b50600a546001600160a01b0316610311565b34801561060f57600080fd5b506102e461191b565b34801561062457600080fd5b506102746106333660046137a4565b61192a565b34801561064457600080fd5b506102746106533660046137dd565b611935565b34801561066457600080fd5b50601454610311906001600160a01b031681565b61027461068636600461385c565b61194c565b34801561069757600080fd5b506102bf6106a63660046138e3565b612244565b3480156106b757600080fd5b506102e46106c6366004613423565b612288565b3480156106d757600080fd5b506010546102bf9060ff1681565b3480156106f157600080fd5b5061028c60115481565b34801561070757600080fd5b506102bf610716366004613998565b612370565b34801561072757600080fd5b50610274610736366004613423565b61239e565b34801561074757600080fd5b50610274610756366004613779565b612447565b610763612485565b600f8190556040518181527f525b762709cc2a983aec5ccdfd807a061f993c91090b5bcd7da92ca254976aaa906020015b60405180910390a150565b60006107aa826124b2565b92915050565b6060600080546107bf906139c6565b80601f01602080910402602001604051908101604052809291908181526020018280546107eb906139c6565b80156108385780601f1061080d57610100808354040283529160200191610838565b820191906000526020600020905b81548152906001019060200180831161081b57829003601f168201915b5050505050905090565b600061084d826124d7565b506000828152600460205260409020546001600160a01b03166107aa565b610876828233612510565b5050565b6012602052816000526040600020818154811061089657600080fd5b906000526020600020016000915091505080546108b2906139c6565b80601f01602080910402602001604051908101604052809291908181526020018280546108de906139c6565b801561092b5780601f106109005761010080835404028352916020019161092b565b820191906000526020600020905b81548152906001019060200180831161090e57829003601f168201915b505050505081565b80516000908290600714158061096f57508060008151811061095757610957613a00565b6020910101516001600160f81b031916602360f81b14155b1561097d5750600092915050565b60015b6007811015610a5457600082828151811061099d5761099d613a00565b01602001516001600160f81b0319169050600360fc1b81108015906109d05750603960f81b6001600160f81b0319821611155b158015610a065750606160f81b6001600160f81b0319821610801590610a045750603360f91b6001600160f81b0319821611155b155b8015610a3b5750604160f81b6001600160f81b0319821610801590610a395750602360f91b6001600160f81b0319821611155b155b15610a4b57506000949350505050565b50600101610980565b5060019392505050565b6001600160a01b038216610a8d57604051633250574960e11b8152600060048201526024015b60405180910390fd5b6000610a9a83833361251d565b9050836001600160a01b0316816001600160a01b031614610ae8576040516364283d7b60e01b81526001600160a01b0380861660048301526024820184905282166044820152606401610a84565b50505050565b6000610af98361185b565b8210610b2a5760405163295f44f760e21b81526001600160a01b038416600482015260248101839052604401610a84565b506001600160a01b03919091166000908152600660209081526040808320938352929052205490565b610b5b612485565b610b63612532565b4780610ba65760405162461bcd60e51b81526020600482015260126024820152714e6f2045544820746f20776974686472617760701b6044820152606401610a84565b6000610bba600a546001600160a01b031690565b6001600160a01b03168260405160006040518083038185875af1925050503d8060008114610c04576040519150601f19603f3d011682016040523d82523d6000602084013e610c09565b606091505b5050905080610c4c5760405162461bcd60e51b815260206004820152600f60248201526e151c985b9cd9995c8819985a5b1959608a1b6044820152606401610a84565b600a546001600160a01b03166001600160a01b03167feaff4b37086828766ad3268786972c0cd24259d4c87a80f9d3963a3c3d999b0d83604051610c9291815260200190565b60405180910390a25050610ca66001600b55565b565b6000818152600260205260409020546060906001600160a01b0316610d065760405162461bcd60e51b8152602060048201526014602482015273151bdad95b88191bd95cc81b9bdd08195e1a5cdd60621b6044820152606401610a84565b600082815260126020908152604080832080548251818502810185019093528083529192909190849084015b82821015610dde578382906000526020600020018054610d51906139c6565b80601f0160208091040260200160405190810160405280929190818152602001828054610d7d906139c6565b8015610dca5780601f10610d9f57610100808354040283529160200191610dca565b820191906000526020600020905b815481529060010190602001808311610dad57829003601f168201915b505050505081526020019060010190610d32565b505060408051602081019091526000808252845194955090939250607e91508190601490603c9082610e108188613a2c565b610e1a9190613a43565b905060006002610e2a8388613a56565b610e349190613a69565b905060005b87811015610ebf576000610e4d8683613a2c565b610e58906014613a43565b905089610e648261255c565b610e6d8761255c565b610e768961255c565b8e8681518110610e8857610e88613a00565b6020026020010151604051602001610ea4959493929190613aa7565b60408051601f19818403018152919052995050600101610e39565b50610ec98661255c565b610ed28661255c565b610edb8361255c565b8a604051602001610eef9493929190613b78565b6040516020818303038152906040529950505050505050505050919050565b610f16612485565b610ca66125ef565b610f3983838360405180602001604052806000815250611935565b505050565b610f478161263c565b600e8054906000610f5783613cd1565b919050555050565b6000610f6a60085490565b8210610f935760405163295f44f760e21b81526000600482015260248101839052604401610a84565b60088281548110610fa657610fa6613a00565b90600052602060002001549050919050565b601454604051631c2fefc160e31b81526060916001600160a01b03169063e17f7e0890610fe99085906004016134c6565b600060405180830381865afa92505050801561102757506040513d6000823e601f3d908101601f191682016040526110249190810190613d2d565b60015b61102f575090565b60145481516040516344ef8f7d60e01b815260048101919091526000916001600160a01b0316906344ef8f7d90602401600060405180830381865afa15801561107c573d6000803e3d6000fd5b505050506040513d6000823e601f3d908101601f191682016040526110a49190810190613e40565b9050600081905060006040518060600160405280602381526020016143ea60239139604080518082019091526002815261227d60f01b60208201529091506000805b835185516110f49190613a56565b81101561118e57600160005b855181101561116a5785818151811061111b5761111b613a00565b01602001516001600160f81b031916876111358386613a43565b8151811061114557611145613a00565b01602001516001600160f81b03191614611162576000915061116a565b600101611100565b50801561118557845161117d9083613a43565b92505061118e565b506001016110e6565b5080805b835186516111a09190613a56565b81101561122f57600160005b8551811015611216578581815181106111c7576111c7613a00565b01602001516001600160f81b031916886111e18386613a43565b815181106111f1576111f1613a00565b01602001516001600160f81b0319161461120e5760009150611216565b6001016111ac565b508015611226578192505061122f565b50600101611192565b50600061123c8383613a56565b6001600160401b0381111561125357611253613547565b6040519080825280601f01601f19166020018201604052801561127d576020820181803683370190505b50905060005b61128d8484613a56565b8110156112eb578661129f8286613a43565b815181106112af576112af613a00565b602001015160f81c60f81b8282815181106112cc576112cc613a00565b60200101906001600160f81b031916908160001a905350600101611283565b509998505050505050505050565b919050565b611306612648565b61130e612532565b60105460ff166113535760405162461bcd60e51b815260206004820152601060248201526f135a5b9d081b9bdd081cdd185c9d195960821b6044820152606401610a84565b600f5434146113a45760405162461bcd60e51b815260206004820181905260248201527f506c656173652073656e64207468652065786163742045544820616d6f756e746044820152606401610a84565b7f00000000000000000000000000000000000000000000000000000000000000008251101580156113f657507f0000000000000000000000000000000000000000000000000000000000000000825111155b61143d5760405162461bcd60e51b8152602060048201526018602482015277496e76616c6964206e756d626572206f6620636f6c6f727360401b6044820152606401610a84565b601154600e54106114855760405162461bcd60e51b815260206004820152601260248201527113585e081cdd5c1c1b1e481c995858da195960721b6044820152606401610a84565b6001600160a01b0381166114d75760405162461bcd60e51b8152602060048201526019602482015278496e76616c696420726563697069656e74206164647265737360381b6044820152606401610a84565b600d5482516000906001600160401b038111156114f6576114f6613547565b60405190808252806020026020018201604052801561152957816020015b60608152602001906001900390816115145790505b50905060005b84518110156117105760145485516001600160a01b03808716921690636352211e9088908590811061156357611563613a00565b60200260200101516040518263ffffffff1660e01b815260040161158991815260200190565b602060405180830381865afa1580156115a6573d6000803e3d6000fd5b505050506040513d601f19601f820116820180604052508101906115ca9190613e74565b6001600160a01b0316146115f05760405162461bcd60e51b8152600401610a8490613e91565b60145485516001600160a01b039091169063ea2207179087908490811061161957611619613a00565b60200260200101516040518263ffffffff1660e01b815260040161163f91815260200190565b600060405180830381865afa15801561165c573d6000803e3d6000fd5b505050506040513d6000823e601f3d908101601f191682016040526116849190810190613e40565b82828151811061169657611696613a00565b60200260200101819052506116c38282815181106116b6576116b6613a00565b6020026020010151610933565b6117085760405162461bcd60e51b8152602060048201526016602482015275496e76616c696420636f6c6f722068657820636f646560501b6044820152606401610a84565b60010161152f565b5061171a81612244565b6117365760405162461bcd60e51b8152600401610a8490613ed4565b6000828152601260209081526040909120825161175592840190613366565b506000816040516020016117699190613f15565b60408051601f198184030181529181528151602092830120600081815260139093529120805460ff1916600117905590506117a4848461266c565b600d80549060006117b483613f7a565b9091555050600e80549060006117c983613f7a565b919050555082846001600160a01b03167fdce49f9b2976c7398205b804e71f718f3482eb59a6524f7ac8355f1ad78ca4ae846040516118089190613f15565b60405180910390a36040518381527ff8e1a15aba9398e019f0b49df1a4fde98ee17ae345cb5f6b5e2c27f5033e8ce79060200160405180910390a15050506108766001600b55565b60006107aa826124d7565b60006001600160a01b038216611887576040516322718ad960e21b815260006004820152602401610a84565b506001600160a01b031660009081526003602052604090205490565b6118ab612485565b610ca66000612686565b6118bd612485565b6010805460ff8082161560ff1990921682179092556040519116151581527f6bdfe227d5db299c59aa56d5f846f40dbd73b271aaa78e18ed74fc3e00b8aa6b906020015b60405180910390a1565b611913612485565b610ca66126d8565b6060600180546107bf906139c6565b610876338383612715565b611940848484610a5e565b610ae8848484846127b4565b611954612648565b61195c612532565b60105460ff166119a15760405162461bcd60e51b815260206004820152601060248201526f135a5b9d081b9bdd081cdd185c9d195960821b6044820152606401610a84565b81806119f95760405162461bcd60e51b815260206004820152602160248201527f42617463682073697a65206d7573742062652067726561746572207468616e206044820152600360fc1b6064820152608401610a84565b80600f54611a079190613a2c565b3414611a555760405162461bcd60e51b815260206004820181905260248201527f506c656173652073656e64207468652065786163742045544820616d6f756e746044820152606401610a84565b60115481600e54611a669190613a43565b1115611ab45760405162461bcd60e51b815260206004820152601760248201527f576f756c6420657863656564206d617820737570706c790000000000000000006044820152606401610a84565b6001600160a01b038216611b065760405162461bcd60e51b8152602060048201526019602482015278496e76616c696420726563697069656e74206164647265737360381b6044820152606401610a84565b611b3160405180604001604052806009815260200168626174636853697a6560b81b815250826128dd565b60005b81811015611edd57611b686040518060400160405280600b81526020016a6c6f6f702073746172747360a81b815250612922565b6000858583818110611b7c57611b7c613a00565b9050602002810190611b8e9190613f93565b8080602002602001604051908101604052809392919081815260200183836020028082843760009201919091525050825192935050507f000000000000000000000000000000000000000000000000000000000000000011801590611c1457507f0000000000000000000000000000000000000000000000000000000000000000815111155b611c5b5760405162461bcd60e51b8152602060048201526018602482015277496e76616c6964206e756d626572206f6620636f6c6f727360401b6044820152606401610a84565b600081516001600160401b03811115611c7657611c76613547565b604051908082528060200260200182016040528015611ca957816020015b6060815260200190600190039081611c945790505b50905060005b8251811015611e835760145483516001600160a01b03808916921690636352211e90869085908110611ce357611ce3613a00565b60200260200101516040518263ffffffff1660e01b8152600401611d0991815260200190565b602060405180830381865afa158015611d26573d6000803e3d6000fd5b505050506040513d601f19601f82011682018060405250810190611d4a9190613e74565b6001600160a01b031614611d705760405162461bcd60e51b8152600401610a8490613e91565b60145483516001600160a01b039091169063ea22071790859084908110611d9957611d99613a00565b60200260200101516040518263ffffffff1660e01b8152600401611dbf91815260200190565b600060405180830381865afa158015611ddc573d6000803e3d6000fd5b505050506040513d6000823e601f3d908101601f19168201604052611e049190810190613e40565b828281518110611e1657611e16613a00565b6020026020010181905250611e368282815181106116b6576116b6613a00565b611e7b5760405162461bcd60e51b8152602060048201526016602482015275496e76616c696420636f6c6f722068657820636f646560501b6044820152606401610a84565b600101611caf565b50611e8d81612244565b611ea95760405162461bcd60e51b8152600401610a8490613ed4565b611ed3604051806040016040528060098152602001686c6f6f7020656e647360b81b815250612922565b5050600101611b34565b50611f0d6040518060400160405280600e81526020016d2432b932901f1f1f1f1f1f1f1f1f60911b815250612922565b60005b8181101561223857611f466040518060400160405280600d81526020016c6c6f6f7020322073746172747360981b815250612922565b6000858583818110611f5a57611f5a613a00565b9050602002810190611f6c9190613f93565b808060200260200160405190810160405280939291908181526020018383602002808284376000920182905250845194955093925050506001600160401b03811115611fba57611fba613547565b604051908082528060200260200182016040528015611fed57816020015b6060815260200190600190039081611fd85790505b50905060005b82518110156120b55760145483516001600160a01b039091169063ea2207179085908490811061202557612025613a00565b60200260200101516040518263ffffffff1660e01b815260040161204b91815260200190565b600060405180830381865afa158015612068573d6000803e3d6000fd5b505050506040513d6000823e601f3d908101601f191682016040526120909190810190613e40565b8282815181106120a2576120a2613a00565b6020908102919091010152600101611ff3565b506120ec604051806040016040528060158152602001746c6f6f702032206d696e74696e672073746172747360581b815250612922565b600d546000818152601260209081526040909120835161210e92850190613366565b506000826040516020016121229190613f15565b60408051601f198184030181529181528151602092830120600081815260139093529120805460ff19166001179055905061215d878361266c565b600d805490600061216d83613f7a565b9091555050600e805490600061218283613f7a565b919050555081876001600160a01b03167fdce49f9b2976c7398205b804e71f718f3482eb59a6524f7ac8355f1ad78ca4ae856040516121c19190613f15565b60405180910390a36040518281527ff8e1a15aba9398e019f0b49df1a4fde98ee17ae345cb5f6b5e2c27f5033e8ce79060200160405180910390a16122286040518060400160405280600b81526020016a6c6f6f70203220656e647360a81b815250612922565b505060019092019150611f109050565b5050610f396001600b55565b600080826040516020016122589190613f15565b60408051601f1981840301815291815281516020928301206000908152601390925290205460ff16159392505050565b6000818152600260205260409020546060906001600160a01b03166122e65760405162461bcd60e51b8152602060048201526014602482015273151bdad95b88191bd95cc81b9bdd08195e1a5cdd60621b6044820152606401610a84565b60006122f183610ca8565b905060006122fe82612965565b9050600061230b8561255c565b61231486612ac4565b8360405160200161232793929190613fe3565b6040516020818303038152906040529050600061234382612965565b905080604051602001612356919061411c565b604051602081830303815290604052945050505050919050565b6001600160a01b03918216600090815260056020908152604080832093909416825291909152205460ff1690565b6123a6612485565b600e5481116124125760405162461bcd60e51b815260206004820152603260248201527f4e6577206d617820737570706c79206d7573742062652067726561746572207460448201527168616e2063757272656e7420737570706c7960701b6064820152608401610a84565b60118190556040518181527f7810bd47de260c3e9ee10061cf438099dd12256c79485f12f94dbccc981e806c90602001610794565b61244f612485565b6001600160a01b03811661247957604051631e4fbdf760e01b815260006004820152602401610a84565b61248281612686565b50565b600a546001600160a01b03163314610ca65760405163118cdaa760e01b8152336004820152602401610a84565b60006001600160e01b0319821663780e9d6360e01b14806107aa57506107aa82612c52565b6000818152600260205260408120546001600160a01b0316806107aa57604051637e27328960e01b815260048101849052602401610a84565b610f398383836001612ca2565b600061252a848484612da8565b949350505050565b6002600b540361255557604051633ee5aeb560e01b815260040160405180910390fd5b6002600b55565b6060600061256983612e75565b60010190506000816001600160401b0381111561258857612588613547565b6040519080825280601f01601f1916602001820160405280156125b2576020820181803683370190505b5090508181016020015b600019016f181899199a1a9b1b9c1cb0b131b232b360811b600a86061a8153600a85049450846125bc575b509392505050565b6125f7612f4d565b600c805460ff191690557f5db9ee0a495bf2e6ff9c91a7834c1ba4fdd244a5e8aa4e537bd38aeae4b073aa335b6040516001600160a01b039091168152602001611901565b6108766000823361251d565b600c5460ff1615610ca65760405163d93c066560e01b815260040160405180910390fd5b610876828260405180602001604052806000815250612f70565b600a80546001600160a01b038381166001600160a01b0319831681179093556040519116919082907f8be0079c531659141344cd1fd0a4f28419497f9722a3daafe3b4186f6b6457e090600090a35050565b6126e0612648565b600c805460ff191660011790557f62e78cea01bee320cd4e420270b5ea74000d11b0c9f74754ebdbfc544b05a2586126243390565b6001600160a01b03821661274757604051630b61174360e31b81526001600160a01b0383166004820152602401610a84565b6001600160a01b03838116600081815260056020908152604080832094871680845294825291829020805460ff191686151590811790915591519182527f17307eab39ab6107e8899845ad3d59bd9653f200f220920489ca2b5937696c31910160405180910390a3505050565b6001600160a01b0383163b15610ae857604051630a85bd0160e11b81526001600160a01b0384169063150b7a02906127f6903390889087908790600401614161565b6020604051808303816000875af1925050508015612831575060408051601f3d908101601f1916820190925261282e9181019061419e565b60015b61289a573d80801561285f576040519150601f19603f3d011682016040523d82523d6000602084013e612864565b606091505b50805160000361289257604051633250574960e11b81526001600160a01b0385166004820152602401610a84565b805181602001fd5b6001600160e01b03198116630a85bd0160e11b146128d657604051633250574960e11b81526001600160a01b0385166004820152602401610a84565b5050505050565b61087682826040516024016128f39291906141bb565b60408051601f198184030181529190526020810180516001600160e01b0316632d839cb360e21b179052612f87565b6124828160405160240161293691906134c6565b60408051601f198184030181529190526020810180516001600160e01b031663104c13eb60e21b179052612f87565b6060815160000361298457505060408051602081019091526000815290565b60006040518060600160405280604081526020016143aa60409139905060006003845160026129b39190613a43565b6129bd9190613a69565b6129c8906004613a2c565b6001600160401b038111156129df576129df613547565b6040519080825280601f01601f191660200182016040528015612a09576020820181803683370190505b50905060018201602082018586518701602081018051600082525b82841015612a7f576003840193508351603f8160121c168701518653600186019550603f81600c1c168701518653600186019550603f8160061c168701518653600186019550603f8116870151865350600185019450612a24565b9052505085516003900660018114612a9e5760028114612ab157612ab9565b603d6001830353603d6002830353612ab9565b603d60018303535b509195945050505050565b6000818152601260209081526040808320805482518185028101850190935280835260609493849084015b82821015612b9b578382906000526020600020018054612b0e906139c6565b80601f0160208091040260200160405190810160405280929190818152602001828054612b3a906139c6565b8015612b875780601f10612b5c57610100808354040283529160200191612b87565b820191906000526020600020905b815481529060010190602001808311612b6a57829003601f168201915b505050505081526020019060010190612aef565b505050509050600060405180602001604052806000815250905060005b82518110156125e7578015612bea5781604051602001612bd891906141dd565b60405160208183030381529060405291505b6000612c0e848381518110612c0157612c01613a00565b6020026020010151610fb8565b905082612c24612c1f846001613a43565b61255c565b82604051602001612c3793929190614202565b60408051601f19818403018152919052925050600101612bb8565b60006001600160e01b031982166380ac58cd60e01b1480612c8357506001600160e01b03198216635b5e139f60e01b145b806107aa57506301ffc9a760e01b6001600160e01b03198316146107aa565b8080612cb657506001600160a01b03821615155b15612d78576000612cc6846124d7565b90506001600160a01b03831615801590612cf25750826001600160a01b0316816001600160a01b031614155b8015612d055750612d038184612370565b155b15612d2e5760405163a9fbf51f60e01b81526001600160a01b0384166004820152602401610a84565b8115612d765783856001600160a01b0316826001600160a01b03167f8c5be1e5ebec7d5bd14f71427d1e84f3dd0314c0f7b2291e5b200ac8c7c3b92560405160405180910390a45b505b5050600090815260046020526040902080546001600160a01b0319166001600160a01b0392909216919091179055565b600080612db6858585612f90565b90506001600160a01b038116612e1357612e0e84600880546000838152600960205260408120829055600182018355919091527ff3f7a9fe364faab93b216da50a3214154f22a0a2b415b23a84c8169e8b636ee30155565b612e36565b846001600160a01b0316816001600160a01b031614612e3657612e368185613089565b6001600160a01b038516612e5257612e4d8461311a565b61252a565b846001600160a01b0316816001600160a01b03161461252a5761252a85856131c9565b60008072184f03e93ff9f4daa797ed6e38ed64bf6a1f0160401b8310612eb45772184f03e93ff9f4daa797ed6e38ed64bf6a1f0160401b830492506040015b6d04ee2d6d415b85acef81000000008310612ee0576d04ee2d6d415b85acef8100000000830492506020015b662386f26fc100008310612efe57662386f26fc10000830492506010015b6305f5e1008310612f16576305f5e100830492506008015b6127108310612f2a57612710830492506004015b60648310612f3c576064830492506002015b600a83106107aa5760010192915050565b600c5460ff16610ca657604051638dfc202b60e01b815260040160405180910390fd5b612f7a8383613219565b610f3960008484846127b4565b6124828161327e565b6000828152600260205260408120546001600160a01b0390811690831615612fbd57612fbd81848661329f565b6001600160a01b03811615612ffb57612fda600085600080612ca2565b6001600160a01b038116600090815260036020526040902080546000190190555b6001600160a01b0385161561302a576001600160a01b0385166000908152600360205260409020805460010190555b60008481526002602052604080822080546001600160a01b0319166001600160a01b0389811691821790925591518793918516917fddf252ad1be2c89b69c2b068fc378daa952ba7f163c4a11628f55a4df523b3ef91a4949350505050565b60006130948361185b565b6000838152600760205260409020549091508082146130e7576001600160a01b03841660009081526006602090815260408083208584528252808320548484528184208190558352600790915290208190555b5060009182526007602090815260408084208490556001600160a01b039094168352600681528383209183525290812055565b60085460009061312c90600190613a56565b6000838152600960205260408120546008805493945090928490811061315457613154613a00565b90600052602060002001549050806008838154811061317557613175613a00565b60009182526020808320909101929092558281526009909152604080822084905585825281205560088054806131ad576131ad61428e565b6001900381819060005260206000200160009055905550505050565b600060016131d68461185b565b6131e09190613a56565b6001600160a01b039093166000908152600660209081526040808320868452825280832085905593825260079052919091209190915550565b6001600160a01b03821661324357604051633250574960e11b815260006004820152602401610a84565b60006132518383600061251d565b90506001600160a01b03811615610f39576040516339e3563760e11b815260006004820152602401610a84565b60006a636f6e736f6c652e6c6f679050600080835160208501845afa505050565b6132aa838383613303565b610f39576001600160a01b0383166132d857604051637e27328960e01b815260048101829052602401610a84565b60405163177e802f60e01b81526001600160a01b038316600482015260248101829052604401610a84565b60006001600160a01b0383161580159061252a5750826001600160a01b0316846001600160a01b0316148061333d575061333d8484612370565b8061252a5750506000908152600460205260409020546001600160a01b03908116911614919050565b8280548282559060005260206000209081019282156133ac579160200282015b828111156133ac578251829061339c90826142eb565b5091602001919060010190613386565b506133b89291506133bc565b5090565b808211156133b85760006133d082826133d9565b506001016133bc565b5080546133e5906139c6565b6000825580601f106133f5575050565b601f01602090049060005260206000209081019061248291905b808211156133b8576000815560010161340f565b60006020828403121561343557600080fd5b5035919050565b6001600160e01b03198116811461248257600080fd5b60006020828403121561346457600080fd5b813561346f8161343c565b9392505050565b60005b83811015613491578181015183820152602001613479565b50506000910152565b600081518084526134b2816020860160208601613476565b601f01601f19169290920160200192915050565b60208152600061346f602083018461349a565b6001600160a01b038116811461248257600080fd5b80356112f9816134d9565b6000806040838503121561350c57600080fd5b8235613517816134d9565b946020939093013593505050565b6000806040838503121561353857600080fd5b50508035926020909101359150565b634e487b7160e01b600052604160045260246000fd5b604051608081016001600160401b038111828210171561357f5761357f613547565b60405290565b604051601f8201601f191681016001600160401b03811182821017156135ad576135ad613547565b604052919050565b60006001600160401b038211156135ce576135ce613547565b50601f01601f191660200190565b60006135ef6135ea846135b5565b613585565b905082815283838301111561360357600080fd5b828260208301376000602084830101529392505050565b600082601f83011261362b57600080fd5b61346f838335602085016135dc565b60006020828403121561364c57600080fd5b81356001600160401b0381111561366257600080fd5b61252a8482850161361a565b60008060006060848603121561368357600080fd5b833561368e816134d9565b9250602084013561369e816134d9565b929592945050506040919091013590565b60006001600160401b038211156136c8576136c8613547565b5060051b60200190565b600080604083850312156136e557600080fd5b82356001600160401b038111156136fb57600080fd5b8301601f8101851361370c57600080fd5b803561371a6135ea826136af565b8082825260208201915060208360051b85010192508783111561373c57600080fd5b6020840193505b8284101561375e578335825260209384019390910190613743565b945061377092505050602084016134ee565b90509250929050565b60006020828403121561378b57600080fd5b813561346f816134d9565b801515811461248257600080fd5b600080604083850312156137b757600080fd5b82356137c2816134d9565b915060208301356137d281613796565b809150509250929050565b600080600080608085870312156137f357600080fd5b84356137fe816134d9565b9350602085013561380e816134d9565b92506040850135915060608501356001600160401b0381111561383057600080fd5b8501601f8101871361384157600080fd5b613850878235602084016135dc565b91505092959194509250565b60008060006040848603121561387157600080fd5b83356001600160401b0381111561388757600080fd5b8401601f8101861361389857600080fd5b80356001600160401b038111156138ae57600080fd5b8660208260051b84010111156138c357600080fd5b6020918201945092508401356138d8816134d9565b809150509250925092565b6000602082840312156138f557600080fd5b81356001600160401b0381111561390b57600080fd5b8201601f8101841361391c57600080fd5b803561392a6135ea826136af565b8082825260208201915060208360051b85010192508683111561394c57600080fd5b602084015b8381101561398d5780356001600160401b0381111561396f57600080fd5b61397e8960208389010161361a565b84525060209283019201613951565b509695505050505050565b600080604083850312156139ab57600080fd5b82356139b6816134d9565b915060208301356137d2816134d9565b600181811c908216806139da57607f821691505b6020821081036139fa57634e487b7160e01b600052602260045260246000fd5b50919050565b634e487b7160e01b600052603260045260246000fd5b634e487b7160e01b600052601160045260246000fd5b80820281158282048414176107aa576107aa613a16565b808201808211156107aa576107aa613a16565b818103818111156107aa576107aa613a16565b600082613a8657634e487b7160e01b600052601260045260246000fd5b500490565b60008151613a9d818560208601613476565b9290920192915050565b60008651613ab9818460208b01613476565b6b1e31b4b931b6329031bc1e9160a11b9083019081528651613ae281600c840160208b01613476565b65111031bc9e9160d11b600c92909101918201528551613b09816012840160208a01613476565b600c81830101915050641110391e9160d91b60068201528451613b3381600b840160208901613476565b6006818301019150506711103334b6361e9160c11b6005820152613b6c613b5d600d830186613a8b565b6211179f60e91b815260030190565b98975050505050505050565b7f3c73766720786d6c6e733d22687474703a2f2f7777772e77332e6f72672f32308152740181817b9bb3391103b34b2bba137bc1e911810181605d1b602082015260008551613bce816035850160208a01613476565b600160fd1b6035918401918201528551613bef816036840160208a01613476565b6035818301019150507f222077696474683d223132363022206865696768743d2231323630223e00000060018201527f3c726563742077696474683d223130302522206865696768743d223130302522601e8201526e103334b6361e913bb434ba3291179f60891b603e8201527f3c67207472616e73666f726d3d227472616e736c617465280000000000000000604d820152613cc6613cb0613caa613c986065850189613a8b565b6516101994911f60d11b815260060190565b86613a8b565b691e17b39f1e17b9bb339f60b11b8152600a0190565b979650505050505050565b600081613ce057613ce0613a16565b506000190190565b600082601f830112613cf957600080fd5b8151613d076135ea826135b5565b818152846020838601011115613d1c57600080fd5b61252a826020830160208701613476565b600060208284031215613d3f57600080fd5b81516001600160401b03811115613d5557600080fd5b820160808185031215613d6757600080fd5b613d6f61355d565b815181526020820151613d8181613796565b60208201526040828101519082015260608201516001600160401b03811115613da957600080fd5b80830192505084601f830112613dbe57600080fd5b8151613dcc6135ea826136af565b8082825260208201915060208360051b860101925087831115613dee57600080fd5b602085015b83811015613e2f5780516001600160401b03811115613e1157600080fd5b613e208a6020838a0101613ce8565b84525060209283019201613df3565b506060840152509095945050505050565b600060208284031215613e5257600080fd5b81516001600160401b03811115613e6857600080fd5b61252a84828501613ce8565b600060208284031215613e8657600080fd5b815161346f816134d9565b60208082526023908201527f526563697069656e74206d757374206f776e20616c6c20636f6c6f7220746f6b604082015262656e7360e81b606082015260800190565b60208082526021908201527f5468697320636f6c6f722070616c6574746520616c72656164792065786973746040820152607360f81b606082015260800190565b6000602082016020835280845180835260408501915060408160051b86010192506020860160005b82811015613f6e57603f19878603018452613f5985835161349a565b94506020938401939190910190600101613f3d565b50929695505050505050565b600060018201613f8c57613f8c613a16565b5060010190565b6000808335601e19843603018112613faa57600080fd5b8301803591506001600160401b03821115613fc457600080fd5b6020019150600581901b3603821315613fdc57600080fd5b9250929050565b717b226e616d65223a2250616c65747465202360701b81528351600090614011816012850160208901613476565b7f222c226465736372697074696f6e223a2250616c6574746573206973206120636012918401918201527f6f6c6c656374696f6e206f662031302c30303020756e6971756520636f6d626960328201527f6e6174696f6e73206f6620757020746f2066697665204261736520436f6c6f72605282015271732e222c2261747472696275746573223a5b60701b607282015284516140b5816084840160208901613476565b6012818301019150507f5d2c22696d616765223a22646174613a696d6167652f7376672b786d6c3b62616072820152641cd94d8d0b60da1b60928201528351614105816097840160208801613476565b613cc660978383010161227d60f01b815260020190565b7f646174613a6170706c69636174696f6e2f6a736f6e3b6261736536342c00000081526000825161415481601d850160208701613476565b91909101601d0192915050565b6001600160a01b03858116825284166020820152604081018390526080606082018190526000906141949083018461349a565b9695505050505050565b6000602082840312156141b057600080fd5b815161346f8161343c565b6040815260006141ce604083018561349a565b90508260208301529392505050565b600082516141ef818460208701613476565b600b60fa1b920191825250600101919050565b60008451614214818460208901613476565b7403d913a3930b4ba2fba3cb832911d1121b7b637b91605d1b9083019081528451614246816015840160208901613476565b6a1116113b30b63ab2911d1160a91b601592909101918201528351614272816020808501908801613476565b61227d60f01b6020929091019182015260220195945050505050565b634e487b7160e01b600052603160045260246000fd5b601f821115610f3957806000526020600020601f840160051c810160208510156142cb5750805b601f840160051c820191505b818110156128d657600081556001016142d7565b81516001600160401b0381111561430457614304613547565b6143188161431284546139c6565b846142a4565b6020601f82116001811461434c57600083156143345750848201515b600019600385901b1c1916600184901b1784556128d6565b600084815260208120601f198516915b8281101561437c578785015182556020948501946001909201910161435c565b508482101561439a5786840151600019600387901b60f8161c191681555b50505050600190811b0190555056fe4142434445464748494a4b4c4d4e4f505152535455565758595a6162636465666768696a6b6c6d6e6f707172737475767778797a303132333435363738392b2f2274726169745f74797065223a22436f6c6f72204e616d65222c2276616c7565223a22a26469706673582212203e907b841a0ed2f73e95a7711282b7603dfce754d53d29924a5b050106e4ca9c64736f6c634300081b0033",
		"linkReferences": {}
	},
	"methodIdentifiers": {
		"MAX_COLORS()": "7eccd594",
		"MIN_COLORS()": "11d4d71c",
		"approve(address,uint256)": "095ea7b3",
		"balanceOf(address)": "70a08231",
		"baseColors()": "bf9d4e62",
		"buildSVG(uint256)": "3e53eb28",
		"burn(uint256)": "42966c68",
		"currentSupply()": "771282f6",
		"currentTokenId()": "009a9b7b",
		"getApproved(uint256)": "081812fc",
		"getColorName(string)": "588635ee",
		"isApprovedForAll(address,address)": "e985e9c5",
		"isUniqueCombination(string[])": "c7f1ff93",
		"isValidHexCode(string)": "238de7f7",
		"maxSupply()": "d5abeb01",
		"mint(uint256[],address)": "5c5b69a9",
		"mintBatch(uint256[][],address)": "c087e77b",
		"mintEnabled()": "d1239730",
		"mintPrice()": "6817c76c",
		"name()": "06fdde03",
		"owner()": "8da5cb5b",
		"ownerOf(uint256)": "6352211e",
		"pause()": "8456cb59",
		"paused()": "5c975abb",
		"renounceOwnership()": "715018a6",
		"safeTransferFrom(address,address,uint256)": "42842e0e",
		"safeTransferFrom(address,address,uint256,bytes)": "b88d4fde",
		"setApprovalForAll(address,bool)": "a22cb465",
		"supportsInterface(bytes4)": "01ffc9a7",
		"symbol()": "95d89b41",
		"toggleMinting()": "7d55094d",
		"tokenByIndex(uint256)": "4f6ccce7",
		"tokenColors(uint256,uint256)": "1d5eecc0",
		"tokenOfOwnerByIndex(address,uint256)": "2f745c59",
		"tokenURI(uint256)": "c87b56dd",
		"totalSupply()": "18160ddd",
		"transferFrom(address,address,uint256)": "23b872dd",
		"transferOwnership(address)": "f2fde38b",
		"unpause()": "3f4ba83a",
		"updateMaxSupply(uint256)": "f103b433",
		"updateMintPrice(uint256)": "00728e46",
		"withdraw()": "3ccfd60b"
	},
	"id": 38
}